{
  "contractName": "Marketplace",
  "abi": [
    {
      "anonymous": false,
      "inputs": [
        {
          "indexed": true,
          "internalType": "uint256",
          "name": "id",
          "type": "uint256"
        },
        {
          "indexed": false,
          "internalType": "address",
          "name": "seller",
          "type": "address"
        },
        {
          "indexed": false,
          "internalType": "string",
          "name": "name",
          "type": "string"
        },
        {
          "indexed": false,
          "internalType": "uint256",
          "name": "price",
          "type": "uint256"
        }
      ],
      "name": "ItemListed",
      "type": "event"
    },
    {
      "anonymous": false,
      "inputs": [
        {
          "indexed": true,
          "internalType": "uint256",
          "name": "id",
          "type": "uint256"
        },
        {
          "indexed": false,
          "internalType": "address",
          "name": "buyer",
          "type": "address"
        },
        {
          "indexed": false,
          "internalType": "address",
          "name": "seller",
          "type": "address"
        },
        {
          "indexed": false,
          "internalType": "uint256",
          "name": "price",
          "type": "uint256"
        }
      ],
      "name": "ItemSold",
      "type": "event"
    },
    {
      "anonymous": false,
      "inputs": [
        {
          "indexed": true,
          "internalType": "uint256",
          "name": "id",
          "type": "uint256"
        },
        {
          "indexed": false,
          "internalType": "address",
          "name": "reviewer",
          "type": "address"
        },
        {
          "indexed": false,
          "internalType": "uint256",
          "name": "rating",
          "type": "uint256"
        }
      ],
      "name": "ReviewAdded",
      "type": "event"
    },
    {
      "inputs": [],
      "name": "itemCount",
      "outputs": [
        {
          "internalType": "uint256",
          "name": "",
          "type": "uint256"
        }
      ],
      "stateMutability": "view",
      "type": "function",
      "constant": true
    },
    {
      "inputs": [
        {
          "internalType": "uint256",
          "name": "",
          "type": "uint256"
        },
        {
          "internalType": "uint256",
          "name": "",
          "type": "uint256"
        }
      ],
      "name": "itemReviews",
      "outputs": [
        {
          "internalType": "address",
          "name": "reviewer",
          "type": "address"
        },
        {
          "internalType": "uint256",
          "name": "rating",
          "type": "uint256"
        },
        {
          "internalType": "string",
          "name": "comment",
          "type": "string"
        }
      ],
      "stateMutability": "view",
      "type": "function",
      "constant": true
    },
    {
      "inputs": [
        {
          "internalType": "uint256",
          "name": "",
          "type": "uint256"
        }
      ],
      "name": "items",
      "outputs": [
        {
          "internalType": "uint256",
          "name": "id",
          "type": "uint256"
        },
        {
          "internalType": "address payable",
          "name": "seller",
          "type": "address"
        },
        {
          "internalType": "string",
          "name": "name",
          "type": "string"
        },
        {
          "internalType": "string",
          "name": "description",
          "type": "string"
        },
        {
          "internalType": "uint256",
          "name": "price",
          "type": "uint256"
        },
        {
          "internalType": "bool",
          "name": "sold",
          "type": "bool"
        }
      ],
      "stateMutability": "view",
      "type": "function",
      "constant": true
    },
    {
      "inputs": [
        {
          "internalType": "string",
          "name": "_name",
          "type": "string"
        },
        {
          "internalType": "string",
          "name": "_description",
          "type": "string"
        },
        {
          "internalType": "uint256",
          "name": "_price",
          "type": "uint256"
        }
      ],
      "name": "listItem",
      "outputs": [],
      "stateMutability": "nonpayable",
      "type": "function"
    },
    {
      "inputs": [
        {
          "internalType": "uint256",
          "name": "_id",
          "type": "uint256"
        }
      ],
      "name": "purchaseItem",
      "outputs": [],
      "stateMutability": "payable",
      "type": "function",
      "payable": true
    },
    {
      "inputs": [
        {
          "internalType": "uint256",
          "name": "_id",
          "type": "uint256"
        },
        {
          "internalType": "uint256",
          "name": "_rating",
          "type": "uint256"
        },
        {
          "internalType": "string",
          "name": "_comment",
          "type": "string"
        }
      ],
      "name": "addReview",
      "outputs": [],
      "stateMutability": "nonpayable",
      "type": "function"
    },
    {
      "inputs": [
        {
          "internalType": "uint256",
          "name": "_id",
          "type": "uint256"
        }
      ],
      "name": "getItem",
      "outputs": [
        {
          "components": [
            {
              "internalType": "uint256",
              "name": "id",
              "type": "uint256"
            },
            {
              "internalType": "address payable",
              "name": "seller",
              "type": "address"
            },
            {
              "internalType": "string",
              "name": "name",
              "type": "string"
            },
            {
              "internalType": "string",
              "name": "description",
              "type": "string"
            },
            {
              "internalType": "uint256",
              "name": "price",
              "type": "uint256"
            },
            {
              "internalType": "bool",
              "name": "sold",
              "type": "bool"
            }
          ],
          "internalType": "struct Marketplace.Item",
          "name": "",
          "type": "tuple"
        }
      ],
      "stateMutability": "view",
      "type": "function",
      "constant": true
    },
    {
      "inputs": [
        {
          "internalType": "uint256",
          "name": "_id",
          "type": "uint256"
        }
      ],
      "name": "getReviews",
      "outputs": [
        {
          "components": [
            {
              "internalType": "address",
              "name": "reviewer",
              "type": "address"
            },
            {
              "internalType": "uint256",
              "name": "rating",
              "type": "uint256"
            },
            {
              "internalType": "string",
              "name": "comment",
              "type": "string"
            }
          ],
          "internalType": "struct Marketplace.Review[]",
          "name": "",
          "type": "tuple[]"
        }
      ],
      "stateMutability": "view",
      "type": "function",
      "constant": true
    }
  ],
  "bytecode": "0x608060405234801561001057600080fd5b506119fc806100206000396000f3fe60806040526004361061007b5760003560e01c806374ca64fb1161004e57806374ca64fb1461013a5780639d4a225514610179578063bfb231d2146101b6578063d38ea5bf146101f85761007b565b80630562021c146100805780633129e773146100a95780633e9e27aa146100e65780636bfb0d011461010f575b600080fd5b34801561008c57600080fd5b506100a760048036038101906100a29190610f92565b610214565b005b3480156100b557600080fd5b506100d060048036038101906100cb9190611011565b6103c6565b6040516100dd919061161d565b60405180910390f35b3480156100f257600080fd5b5061010d60048036038101906101089190611076565b6105ec565b005b34801561011b57600080fd5b506101246107aa565b604051610131919061163f565b60405180910390f35b34801561014657600080fd5b50610161600480360381019061015c919061103a565b6107b0565b6040516101709392919061151d565b60405180910390f35b34801561018557600080fd5b506101a0600480360381019061019b9190611011565b61089f565b6040516101ad919061155b565b60405180910390f35b3480156101c257600080fd5b506101dd60048036038101906101d89190611011565b610a54565b6040516101ef9695949392919061165a565b60405180910390f35b610212600480360381019061020d9190611011565b610bcd565b005b60008111610257576040517f08c379a000000000000000000000000000000000000000000000000000000000815260040161024e9061157d565b60405180910390fd5b6002600081548092919061026a906118c8565b91905055506040518060c0016040528060025481526020013373ffffffffffffffffffffffffffffffffffffffff1681526020018481526020018381526020018281526020016000151581525060008060025481526020019081526020016000206000820151816000015560208201518160010160006101000a81548173ffffffffffffffffffffffffffffffffffffffff021916908373ffffffffffffffffffffffffffffffffffffffff1602179055506040820151816002019080519060200190610338929190610e24565b506060820151816003019080519060200190610355929190610e24565b506080820151816004015560a08201518160050160006101000a81548160ff0219169083151502179055509050506002547f4e3807e76e8c2a7b6547b6189eba5d3dc4fe2bc48c057e8ec545ec13be8063c53385846040516103b9939291906114b6565b60405180910390a2505050565b6103ce610eaa565b6000821180156103e057506002548211155b61041f576040517f08c379a0000000000000000000000000000000000000000000000000000000008152600401610416906115bd565b60405180910390fd5b6000808381526020019081526020016000206040518060c0016040529081600082015481526020016001820160009054906101000a900473ffffffffffffffffffffffffffffffffffffffff1673ffffffffffffffffffffffffffffffffffffffff1673ffffffffffffffffffffffffffffffffffffffff1681526020016002820180546104ac90611896565b80601f01602080910402602001604051908101604052809291908181526020018280546104d890611896565b80156105255780601f106104fa57610100808354040283529160200191610525565b820191906000526020600020905b81548152906001019060200180831161050857829003601f168201915b5050505050815260200160038201805461053e90611896565b80601f016020809104026020016040519081016040528092919081815260200182805461056a90611896565b80156105b75780601f1061058c576101008083540402835291602001916105b7565b820191906000526020600020905b81548152906001019060200180831161059a57829003601f168201915b50505050508152602001600482015481526020016005820160009054906101000a900460ff1615151515815250509050919050565b6000831180156105fe57506002548311155b61063d576040517f08c379a0000000000000000000000000000000000000000000000000000000008152600401610634906115bd565b60405180910390fd5b6001821015801561064f575060058211155b61068e576040517f08c379a00000000000000000000000000000000000000000000000000000000081526004016106859061159d565b60405180910390fd5b6001600084815260200190815260200160002060405180606001604052803373ffffffffffffffffffffffffffffffffffffffff16815260200184815260200183815250908060018154018082558091505060019003906000526020600020906003020160009091909190915060008201518160000160006101000a81548173ffffffffffffffffffffffffffffffffffffffff021916908373ffffffffffffffffffffffffffffffffffffffff160217905550602082015181600101556040820151816002019080519060200190610768929190610e24565b505050827f2b9c3d5cf21860ed898980596d65b176ebaa1765f7f9a288a51aad4672ba1e75338460405161079d9291906114f4565b60405180910390a2505050565b60025481565b600160205281600052604060002081815481106107cc57600080fd5b9060005260206000209060030201600091509150508060000160009054906101000a900473ffffffffffffffffffffffffffffffffffffffff169080600101549080600201805461081c90611896565b80601f016020809104026020016040519081016040528092919081815260200182805461084890611896565b80156108955780601f1061086a57610100808354040283529160200191610895565b820191906000526020600020905b81548152906001019060200180831161087857829003601f168201915b5050505050905083565b60606000821180156108b357506002548211155b6108f2576040517f08c379a00000000000000000000000000000000000000000000000000000000081526004016108e9906115bd565b60405180910390fd5b60016000838152602001908152602001600020805480602002602001604051908101604052809291908181526020016000905b82821015610a4957838290600052602060002090600302016040518060600160405290816000820160009054906101000a900473ffffffffffffffffffffffffffffffffffffffff1673ffffffffffffffffffffffffffffffffffffffff1673ffffffffffffffffffffffffffffffffffffffff168152602001600182015481526020016002820180546109b890611896565b80601f01602080910402602001604051908101604052809291908181526020018280546109e490611896565b8015610a315780601f10610a0657610100808354040283529160200191610a31565b820191906000526020600020905b815481529060010190602001808311610a1457829003601f168201915b50505050508152505081526020019060010190610925565b505050509050919050565b60006020528060005260406000206000915090508060000154908060010160009054906101000a900473ffffffffffffffffffffffffffffffffffffffff1690806002018054610aa390611896565b80601f0160208091040260200160405190810160405280929190818152602001828054610acf90611896565b8015610b1c5780601f10610af157610100808354040283529160200191610b1c565b820191906000526020600020905b815481529060010190602001808311610aff57829003601f168201915b505050505090806003018054610b3190611896565b80601f0160208091040260200160405190810160405280929190818152602001828054610b5d90611896565b8015610baa5780601f10610b7f57610100808354040283529160200191610baa565b820191906000526020600020905b815481529060010190602001808311610b8d57829003601f168201915b5050505050908060040154908060050160009054906101000a900460ff16905086565b60008060008381526020019081526020016000209050600082118015610bf557506002548211155b610c34576040517f08c379a0000000000000000000000000000000000000000000000000000000008152600401610c2b906115bd565b60405180910390fd5b8060050160009054906101000a900460ff1615610c86576040517f08c379a0000000000000000000000000000000000000000000000000000000008152600401610c7d906115fd565b60405180910390fd5b8060040154341015610ccd576040517f08c379a0000000000000000000000000000000000000000000000000000000008152600401610cc4906115dd565b60405180910390fd5b60018160050160006101000a81548160ff0219169083151502179055508060010160009054906101000a900473ffffffffffffffffffffffffffffffffffffffff1673ffffffffffffffffffffffffffffffffffffffff166108fc82600401549081150290604051600060405180830381858888f19350505050158015610d58573d6000803e3d6000fd5b508060040154341115610dbc573373ffffffffffffffffffffffffffffffffffffffff166108fc826004015434610d8f9190611790565b9081150290604051600060405180830381858888f19350505050158015610dba573d6000803e3d6000fd5b505b817f04ddd54c6b746e69ba87f862311f7670bd1d7276846778ac81cd38747b27a746338360010160009054906101000a900473ffffffffffffffffffffffffffffffffffffffff168460040154604051610e189392919061147f565b60405180910390a25050565b828054610e3090611896565b90600052602060002090601f016020900481019282610e525760008555610e99565b82601f10610e6b57805160ff1916838001178555610e99565b82800160010185558215610e99579182015b82811115610e98578251825591602001919060010190610e7d565b5b509050610ea69190610ef8565b5090565b6040518060c0016040528060008152602001600073ffffffffffffffffffffffffffffffffffffffff1681526020016060815260200160608152602001600081526020016000151581525090565b5b80821115610f11576000816000905550600101610ef9565b5090565b6000610f28610f23846116fa565b6116c9565b905082815260208101848484011115610f4057600080fd5b610f4b848285611854565b509392505050565b600082601f830112610f6457600080fd5b8135610f74848260208601610f15565b91505092915050565b600081359050610f8c816119af565b92915050565b600080600060608486031215610fa757600080fd5b600084013567ffffffffffffffff811115610fc157600080fd5b610fcd86828701610f53565b935050602084013567ffffffffffffffff811115610fea57600080fd5b610ff686828701610f53565b925050604061100786828701610f7d565b9150509250925092565b60006020828403121561102357600080fd5b600061103184828501610f7d565b91505092915050565b6000806040838503121561104d57600080fd5b600061105b85828601610f7d565b925050602061106c85828601610f7d565b9150509250929050565b60008060006060848603121561108b57600080fd5b600061109986828701610f7d565b93505060206110aa86828701610f7d565b925050604084013567ffffffffffffffff8111156110c757600080fd5b6110d386828701610f53565b9150509250925092565b60006110e98383611411565b905092915050565b6110fa8161181e565b82525050565b611109816117d6565b82525050565b611118816117d6565b82525050565b611127816117c4565b82525050565b611136816117c4565b82525050565b60006111478261173a565b611151818561175d565b9350836020820285016111638561172a565b8060005b8581101561119f578484038952815161118085826110dd565b945061118b83611750565b925060208a01995050600181019050611167565b50829750879550505050505092915050565b6111ba816117e8565b82525050565b6111c9816117e8565b82525050565b60006111da82611745565b6111e4818561176e565b93506111f4818560208601611863565b6111fd8161199e565b840191505092915050565b600061121382611745565b61121d818561177f565b935061122d818560208601611863565b6112368161199e565b840191505092915050565b600061124e601f8361177f565b91507f5072696365206d7573742062652067726561746572207468616e207a65726f006000830152602082019050919050565b600061128e601e8361177f565b91507f526174696e67206d757374206265206265747765656e203120616e64203500006000830152602082019050919050565b60006112ce60138361177f565b91507f4974656d20646f6573206e6f74206578697374000000000000000000000000006000830152602082019050919050565b600061130e60178361177f565b91507f496e73756666696369656e742066756e64732073656e740000000000000000006000830152602082019050919050565b600061134e60118361177f565b91507f4974656d20616c726561647920736f6c640000000000000000000000000000006000830152602082019050919050565b600060c0830160008301516113996000860182611461565b5060208301516113ac6020860182611100565b50604083015184820360408601526113c482826111cf565b915050606083015184820360608601526113de82826111cf565b91505060808301516113f36080860182611461565b5060a083015161140660a08601826111b1565b508091505092915050565b6000606083016000830151611429600086018261111e565b50602083015161143c6020860182611461565b506040830151848203604086015261145482826111cf565b9150508091505092915050565b61146a81611814565b82525050565b61147981611814565b82525050565b6000606082019050611494600083018661112d565b6114a160208301856110f1565b6114ae6040830184611470565b949350505050565b60006060820190506114cb600083018661112d565b81810360208301526114dd8185611208565b90506114ec6040830184611470565b949350505050565b6000604082019050611509600083018561112d565b6115166020830184611470565b9392505050565b6000606082019050611532600083018661112d565b61153f6020830185611470565b81810360408301526115518184611208565b9050949350505050565b60006020820190508181036000830152611575818461113c565b905092915050565b6000602082019050818103600083015261159681611241565b9050919050565b600060208201905081810360008301526115b681611281565b9050919050565b600060208201905081810360008301526115d6816112c1565b9050919050565b600060208201905081810360008301526115f681611301565b9050919050565b6000602082019050818103600083015261161681611341565b9050919050565b600060208201905081810360008301526116378184611381565b905092915050565b60006020820190506116546000830184611470565b92915050565b600060c08201905061166f6000830189611470565b61167c602083018861110f565b818103604083015261168e8187611208565b905081810360608301526116a28186611208565b90506116b16080830185611470565b6116be60a08301846111c0565b979650505050505050565b6000604051905081810181811067ffffffffffffffff821117156116f0576116ef61196f565b5b8060405250919050565b600067ffffffffffffffff8211156117155761171461196f565b5b601f19601f8301169050602081019050919050565b6000819050602082019050919050565b600081519050919050565b600081519050919050565b6000602082019050919050565b600082825260208201905092915050565b600082825260208201905092915050565b600082825260208201905092915050565b600061179b82611814565b91506117a683611814565b9250828210156117b9576117b8611911565b5b828203905092915050565b60006117cf826117f4565b9050919050565b60006117e1826117f4565b9050919050565b60008115159050919050565b600073ffffffffffffffffffffffffffffffffffffffff82169050919050565b6000819050919050565b600061182982611830565b9050919050565b600061183b82611842565b9050919050565b600061184d826117f4565b9050919050565b82818337600083830152505050565b60005b83811015611881578082015181840152602081019050611866565b83811115611890576000848401525b50505050565b600060028204905060018216806118ae57607f821691505b602082108114156118c2576118c1611940565b5b50919050565b60006118d382611814565b91507fffffffffffffffffffffffffffffffffffffffffffffffffffffffffffffffff82141561190657611905611911565b5b600182019050919050565b7f4e487b7100000000000000000000000000000000000000000000000000000000600052601160045260246000fd5b7f4e487b7100000000000000000000000000000000000000000000000000000000600052602260045260246000fd5b7f4e487b7100000000000000000000000000000000000000000000000000000000600052604160045260246000fd5b6000601f19601f8301169050919050565b6119b881611814565b81146119c357600080fd5b5056fea2646970667358221220e8a04875c5a78755d706e90a3e579b6f2599d6db5c1bd509390378f44f2eb78664736f6c63430008000033",
  "immutableReferences": {},
  "source": "// SPDX-License-Identifier: MIT\npragma solidity >0.5.0 <0.9.0;\n\ncontract Marketplace {\n    struct Item {\n        uint256 id;\n        address payable seller;\n        string name;\n        string description;\n        uint256 price;\n        bool sold;\n    }\n\n    struct Review {\n        address reviewer;\n        uint256 rating;\n        string comment;\n    }\n\n    mapping(uint256 => Item) public items;\n    mapping(uint256 => Review[]) public itemReviews;\n    uint256 public itemCount;\n\n    event ItemListed(\n        uint256 indexed id,\n        address seller,\n        string name,\n        uint256 price\n    );\n    event ItemSold(\n        uint256 indexed id,\n        address buyer,\n        address seller,\n        uint256 price\n    );\n    event ReviewAdded(uint256 indexed id, address reviewer, uint256 rating);\n\n    function listItem(\n        string memory _name,\n        string memory _description,\n        uint256 _price\n    ) public {\n        require(_price > 0, \"Price must be greater than zero\");\n\n        itemCount++;\n        items[itemCount] = Item(\n            itemCount,\n            payable(msg.sender),\n            _name,\n            _description,\n            _price,\n            false\n        );\n\n        emit ItemListed(itemCount, msg.sender, _name, _price);\n    }\n\n    function purchaseItem(uint256 _id) public payable {\n        Item storage item = items[_id];\n        require(_id > 0 && _id <= itemCount, \"Item does not exist\");\n        require(!item.sold, \"Item already sold\");\n        require(msg.value >= item.price, \"Insufficient funds sent\");\n\n        item.sold = true;\n        item.seller.transfer(item.price);\n\n        if (msg.value > item.price) {\n            payable(msg.sender).transfer(msg.value - item.price);\n        }\n\n        emit ItemSold(_id, msg.sender, item.seller, item.price);\n    }\n\n    function addReview(\n        uint256 _id,\n        uint256 _rating,\n        string memory _comment\n    ) public {\n        require(_id > 0 && _id <= itemCount, \"Item does not exist\");\n        require(_rating >= 1 && _rating <= 5, \"Rating must be between 1 and 5\");\n\n        itemReviews[_id].push(Review(msg.sender, _rating, _comment));\n\n        emit ReviewAdded(_id, msg.sender, _rating);\n    }\n\n    function getItem(uint256 _id) public view returns (Item memory) {\n        require(_id > 0 && _id <= itemCount, \"Item does not exist\");\n        return items[_id];\n    }\n\n    function getReviews(uint256 _id) public view returns (Review[] memory) {\n        require(_id > 0 && _id <= itemCount, \"Item does not exist\");\n        return itemReviews[_id];\n    }\n}\n",
  "sourcePath": "/Users/sultanamangeldiyev/iitu_blockhain/SE-241M-SFT7311-6-Lab-Theory-and-Technology-of-Blockchain-Lab/dart_marketplace_backend/contracts/Marketplace.sol",
  "compiler": {
    "name": "solc",
    "version": "0.8.0+commit.c7dfd78e.Emscripten.clang"
  },
  "schemaVersion": "3.4.16",
  "updatedAt": "2024-10-18T10:35:23.482Z",
  "networkType": "ethereum",
  "devdoc": {
    "kind": "dev",
    "methods": {},
    "version": 1
  },
  "userdoc": {
    "kind": "user",
    "methods": {},
    "version": 1
  }
}